:100000000C9454020C9426160C94FF150C94D815DD
:100010000C94B1150C947C020C947C020C948A15FF
:100020000C947C020C947C020C94A5120C94141376
:100030000C947C020C947C020C947C020C947C0248
:100040000C947C020C947C020C947C020C947C0238
:100050000C947C020C944D160C947C020C9440156C
:100060000C947C020C947C020C947C020C947C0218
:100070000C947C020C947C020C947C020C947C0208
:100080000C947C020C947C020C947C020C947C02F8
:100090000C947C020C947C020C947C020C947C02E8
:1000A0000C947C020C947C020C947C0200000000F6
:1000B0000000000000000000000000002A002B00EB
:1000C0002800000000000000000000000000000008
:1000D0000000000000000000000000000000000020
:1000E0000000000000000000000000002C001E02C4
:1000F00034022002210222022402340026022702B6
:1001000025022E0236002D003700380027001E0081
:100110001F002000210022002300240025002600CB
:100120003302330036022E00370238021F02040267
:10013000050206020702080209020A020B020C026B
:100140000D020E020F02100211021202130214021B
:10015000150216021702180219021A021B021C02CB
:100160001D022F003100300023022D023500040053
:10017000050006000700080009000A000B000C003B
:100180000D000E000F0010001100120013001400EB
:10019000150016001700180019001A001B001C009B
:1001A0001D002F023102300235020000E000E100A4
:1001B000E200E300E400E500E600E70000000000E4
:1001C000000000000000000000000000000000002F
:1001D000000000000000000000000000000000001F
:1001E000000000000000000000000000000000000F
:1001F00000000000000000000000000000000000FF
:10020000000000000000000000000000280029009D
:100210002A002B0000000000000000000000000089
:100220000000000000000000000000000000390095
:100230003A003B003C003D003E003F0040004100D2
:100240004200430044004500460047004800490082
:100250004A004B004C004D004E004F005000510032
:1002600052005300540055005600570058005900E2
:100270005A005B005C005D005E005F006000610092
:1002800062006300000000000000000068006900D8
:100290006A006B006C006D006E006F0070007100F2
:1002A0007200730000000000000000000501090654
:1002B000A101050719E029E7150025017501950839
:1002C0008102050C95017508150026FF001900290B
:1002D000FF8100050819012908950875019102059B
:1002E0000795067508150026E700190029E7810023
:1002F000C000000000240027002A002D003000006C
:100300000000002300260029002C002F0000000020
:100310000200090F0000030401000C0000000000AF
:10032000000000000000000000000000080B0002B8
:10033000020200000904000001020200000524007E
:100340001001052401010104240206052406000110
:100350000705810310004009040100020A000000A3
:100360000705020240000007058302400000040365
:10037000090412010002EF0201404123368000010E
:100380000102030141726475696E6F204C4C430099
:1003900041726475696E6F204C656F6E6172646F37
:1003A000000501090EA101850A050D0921A100051D
:1003B0000909019501750115002501810205010951
:1003C000379501750F550F651436F0F146100E166E
:1003D000F0F126100E8106C0C005010902A10185B9
:1003E00001050919012908150025019508750181E4
:1003F0000205010930093109381581257F750895F5
:10040000038106C005010906A1018502050719E05F
:1004100029E715002501750195088102050C950154
:100420007508150026FF00190029FF8100050795B2
:10043000067508150026E700190029E78100C005A8
:100440000C0901A1018504150026FF0319002AFFEC
:1004500003950475108100C004080201104080401B
:1004600010204080408008020401804020100201DA
:100470001080102040402000000000250028002BA4
:10048000002E0031000404040404030405020202E7
:10049000020403020202020606060606060404021D
:1004A000020204046617382211241FBECFEFDAE0DF
:1004B000DEBFCDBF28E0A6EDB6E001C01D92A83595
:1004C000B207E1F716E0A0E0B1E0E6E4FFE402C025
:1004D00005900D92A63DB107D9F712E0C3E5D2E031
:1004E00004C02197FE010E94F422C235D107C9F74A
:1004F0000E94E5180C9496270C9400004F925F928E
:100500006F927F928F929F92AF92BF92FF922091B3
:100510004008309141088217930708F043C02B012F
:1005200066247724852E962EA72EBB24B82DA42FC3
:1005300020914608F42C222391F0E22FF0E0E49D74
:10054000D001E59DB00DF49DB00D1124FB2E289D2A
:1005500040011124B92D249F90011124A32FE09173
:100560004C08209147083091480850914908E513FC
:1005700023C0FC01EE0FFF1F8E0F9F1F820F931FE2
:10058000E0914908E80FF92FF11DF082E0914A0847
:10059000E80FF92FF11DB08320914B08820F911DB8
:1005A000FC01A083FF90BF90AF909F908F907F90B1
:1005B0006F905F904F900895880F991F880F991F33
:1005C000820F931FE80FF92FF11D1082D9CFE82F6A
:1005D000F0E0EE0FFF1FE951FC4F29EF35E03183CA
:1005E00020838230D9F028F4882341F0813071F0E3
:1005F00008958330D9F0843009F10895809169001D
:100600008C7F816080936900E89A089580916900E9
:10061000837F846080936900E99A089580916900DE
:100620008F7C806180936900EA9A089580916900C7
:100630008F73806480936900EB9A089580916A00BB
:100640008F7C806180936A00EE9A0895FC0180910E
:100650005307882311F13FB7F89482E08093E900B3
:100660002091F200822F90E01816190614F481E010
:1006700090E0882339F0289844E64093520740914F
:10068000F1004083222339F02091F200211103C0B0
:100690002BE62093E8003FBF08958FEF9FEF08956A
:1006A000FC01248135816217730720F480819181D8
:1006B000009729F410920A078AE097E00895860FC0
:1006C000971F0895089540910607509107072091BC
:1006D00004073091050742175307B4F49091E800DE
:1006E0009570E1F39091E80092FD19C08093F100BC
:1006F000809106079091070701968F739927892BA0
:1007000019F48EEF8093E800809106079091070717
:100710000196909307078093060781E0089580E093
:100720000895DF92EF92FF920F931F93CF93DF9381
:10073000D82E8A01EB017B01E40EF51ECE15DF05F4
:1007400059F0D7FE12C0FE0184910E9463032196E6
:100750008111F4CF0FEF1FEFC801DF91CF911F91EF
:100760000F91FF90EF90DF9008958881EECF2FB723
:10077000F89487708093E9009091E800892F807247
:1007800095FF04C09091F20080E4891B2FBF08956B
:10079000615030F02091F100FC0120830196F8CFE8
:1007A000289884E6809352070895AF92BF92DF9213
:1007B000EF92FF920F931F93CF93DF935C018B0116
:1007C000EB019BEFD92E2097C1F07E01C134D105FA
:1007D0001CF080E4E82EF12C8091E80082FFFCCF31
:1007E000C8018C1B9D0B6E2D8A0D9B1D0E94C8039A
:1007F000D092E800CE19DF09E6CFC801DF91CF9192
:100800001F910F91FF90EF90DF90BF90AF900895F0
:10081000AF92BF92CF92DF92EF92FF920F931F930E
:10082000CF93DF936C017B018B01040F151FEB014C
:100830005E01AE18BF08C017D10759F06991D60103
:10084000ED91FC910190F081E02DC6010995892B75
:1008500079F7C501DF91CF911F910F91FF90EF9034
:10086000DF90CF90BF90AF9008958091FC068111EA
:100870000DC082E08093F80684E08093F906109220
:10088000FB061092FA0681E08093FC0688EF96E062
:1008900008950F931F93CF93DF931F92CDB7DEB7C9
:1008A00082E0898342E450E06CE273E080E80E94D9
:1008B00091030E943504DC0112960D911C910115E3
:1008C000110589F0D801ED91FC910280F381E02DB2
:1008D000BE016F5F7F4FC801099597FD04C0F80105
:1008E00000851185ECCF89810F90DF91CF911F9109
:1008F0000F910895CF93DF93FC01DB018181149662
:100900003C911497682F630F7727771F6830710524
:100910009CF5C281D381209739F5B383A28390815E
:1009200012969C93129713968C93139715968C910D
:100930001597890F808390E080E0831708F5218167
:10094000C22FD0E0BE016C5F7E4F16964D915C9138
:100950001797480F591FEA014881EB0148832F5F21
:1009600021830196EACFEA01488559854115510551
:10097000D1F7B987A887D3CF80E0DF91CF910895D1
:1009800081E0FBCFCF93DF931F92CDB7DEB76983B2
:10099000DC01ED91FC910280F381E02D41E050E01B
:1009A000BE016F5F7F4F09950F90DF91CF91089542
:1009B00083E08093E9008091F200882319F08AE3B4
:1009C0008093E800089583E00E94B70390E00895C3
:1009D000CF93DF931F92CDB7DEB7FC018485958559
:1009E00097FD08C02FEF3FEF358724870F90DF91E9
:1009F000CF910895CE0101960E942603019719F424
:100A0000898190E0F3CF8FEF9FEFF0CF2FB7F8946D
:100A10008091540790915507A0915607B0915707C0
:100A20002FBF8093600790936107A0936207B093F4
:100A3000630788E597E00E94E80497FF26C02FB778
:100A4000F8948091540790915507A0915607B09162
:100A500057072FBF4091600750916107609162076F
:100A600070916307841B950BA60BB70B40915C0735
:100A700050915D0760915E0770915F07841795073D
:100A8000A607B707B0F28FEF9FEF08950F931F935C
:100A9000CF93DF931F92CDB7DEB78C01FC01848525
:100AA000958597FF0BC0CE0101960E942603019702
:100AB00071F4898190E0F80195878487F801848535
:100AC00095850F90DF91CF911F910F9108958FEF32
:100AD0009FEFF1CFFC018485958597FD0BC09FB7F3
:100AE000F89482E08093E9008091F2009FBF90E04B
:100AF000019608959FB7F89482E08093E900809171
:100B0000F2009FBF90E0089581508F3008F047C0F9
:100B1000E82FF0E0E257FA4F0C94F422AB05AF0552
:100B20009D05A305A705CF05CF05CF05B205B805DF
:100B3000BC05C005C605CF05CA05809180008F772A
:100B4000809380000895809180008F7DF9CF8091FF
:100B50008000877FF5CF84B58F7784BD089584B5F5
:100B60008F7DFBCF809190008F77809390000895C8
:100B7000809190008F7DF9CF80919000877FF5CF95
:100B80008091C0008F778093C00008958091C0004D
:100B90008F7DF9CF8091C200877F8093C200089536
:100BA000CF93DF93282F30E0F901E35FFC4F84916E
:100BB000F901E85AFB4FD491F901EB57FB4FC4916F
:100BC000CC23A1F081110E948405EC2FF0E0EE0F00
:100BD000FF1FE150FD4FA591B491EC91ED2381E011
:100BE00090E009F480E0DF91CF91089580E090E0FB
:100BF000FACFCF93DF9380E00E94D005EC0181E033
:100C00000E94D005CC0FDD1F8C2B9D2B2091D80688
:100C10003091D906220F331F220F331F282B392B77
:100C20002230310549F02B30310531F02D303105BE
:100C300019F02430310551F44091360750913707AF
:100C40004F5F5F4F50933707409336072130310590
:100C500049F0A901475051094230510518F02E3092
:100C6000310551F420913607309137072150310971
:100C700030933707209336079093D9068093D80690
:100C8000DF91CF9108951F93CF93DF93282F30E00A
:100C9000F901E35FFC4F8491F901E85AFB4FD491CD
:100CA000F901EB57FB4FC491CC23A9F0162F81110A
:100CB0000E948405EC2FF0E0EE0FFF1FE958FB4F78
:100CC000A591B4918FB7F894EC91111108C0D0950B
:100CD000DE23DC938FBFDF91CF911F910895DE2B30
:100CE000F8CFCF93DF9390E0FC01E85AFB4F2491BB
:100CF0008B579B4FFC0184918823C9F090E0880FAB
:100D0000991FFC01EF50FD4FA591B491FC01E958EA
:100D1000FB4FC591D49161110DC09FB7F8948C9190
:100D2000209582238C938881282328839FBFDF917D
:100D3000CF910895623051F49FB7F8943C91822F7F
:100D4000809583238C93E8812E2BEFCF8FB7F89477
:100D5000EC912E2B2C938FBFEACF3FB7F894809164
:100D6000F4069091F506A091F606B091F70626B527
:100D7000A89B05C02F3F19F00196A11DB11D3FBFD3
:100D8000BA2FA92F982F8827BC01CD01620F711DA2
:100D9000811D911D42E0660F771F881F991F4A959C
:100DA000D1F708950F931F93CF93DF93CDB7DEB79D
:100DB00029970FB6F894DEBF0FBECDBF80914708CC
:100DC00090914808892B09F47CC00E94AD060091DF
:100DD0004D0810914E0820914F083091500860172F
:100DE00071078207930740F460934D0870934E0893
:100DF00080934F089093500800914D0810914E0831
:100E000020914F0830915008601B710B820B930B9F
:100E10006C32714081059105C0F2F89480914208CE
:100E2000909143089A838983E0914708F09148089C
:100E3000DF0111968081898790913E08E0915108E9
:100E4000F091520880915308992309F445C090818C
:100E5000982B98879081809589238F838F818C83AD
:100E600088E08B8358856F8149853B812C818981FE
:100E70009A81508347FD252F3A952083262F39F0FC
:100E8000441F00C000006083000000C0F2CF38E0C3
:100E90004D9160830000019761F7F0935208E09351
:100EA000510849873B832C839A83898378940E94D5
:100EB000AD0660934D0870934E0880934F08909351
:100EC000500829960FB6F894DEBF0FBECDBFDF9154
:100ED000CF911F910F9108959081982B98879081C1
:100EE000809589238F838F818E8388E08D835885B9
:100EF0006F8149853D812E8189819A81508347FD8B
:100F0000252F00C000C0208300C000C000C000C06A
:100F100000C060830000262F3A9541F0441F000076
:100F200000C000C000C000C000C0E8CF38E04D9154
:100F300000C0608300C0019709F7F0935208E09366
:100F4000510849873D832E83AFCF8F929F92AF92F6
:100F5000BF92CF92DF92EF92FF924B015C010E9411
:100F6000AD066B017C010E94AD066C197D098E09EE
:100F70009F09683E734081059105A8F321E0821A1C
:100F80009108A108B10888EEC80E83E0D81EE11CC4
:100F9000F11C81149104A104B10429F7FF90EF9092
:100FA000DF90CF90BF90AF909F908F9008957F92E9
:100FB0008F929F92AF92BF92CF92DF92EF92FF9269
:100FC0000F931F93CF93DF93C82E8B017A018091EB
:100FD0005307811110C08FEF9FEFDF91CF911F91C9
:100FE0000F91FF90EF90DF90CF90BF90AF909F90C8
:100FF0008F907F90089580910B0780FF05C08091AE
:10100000E00082608093E000CE2DDF2DD12C8AEFAE
:10101000B82E8C2D8770982E8C2D8072882E8C2D5A
:101020008074782E9AE3A92E209719F4DD2009F414
:1010300052C08C2D0E94B70381110AC0BA94BB2004
:1010400051F261E070E080E090E00E94A507ECCFF3
:101050008C171D0611F00CF08C2F9FB7F89490920E
:10106000E9002091E80025FD02C09FBFDDCF282FB9
:1010700030E0C21BD30B882029F08150A0F01092E1
:10108000F100FBCFF801C7FC0AC0815050F041913C
:101090004093F100FACF44914093F1003196815092
:1010A000D0F7020F131FDD2021F0A092E800D12C11
:1010B000DCCF8091E80085FD07C0A092E800DD2428
:1010C000D394209791F2F3CF209779F6772069F2A5
:1010D000A092E800CACF5D9884E680930907C70113
:1010E0007CCFCF93DF93EC0180911601882331F000
:1010F00083E00E94D7071816190634F081E090E0CB
:101100009B838A8380E090E0DF91CF9108950895DA
:10111000DC01FB0112962C9112978481958128178E
:10112000190641F491818081813A31F49D7F81E0FB
:10113000913009F080E008958132E1F79B3029F485
:1011400082811F968C9381E008959A3099F782816D
:1011500050968C93F8CFAF92BF92CF92DF92EF92DE
:10116000FF920F931F93CF93DF931F92CDB7DEB7FC
:101170007C0169836A01590141E050E0BE016F5F63
:101180007F4FFC0183810E94D7078C0197FD0BC024
:10119000F7018381A501B60180640E94D707080F7B
:1011A000191F97FD8C01C8010F90DF91CF911F91FE
:1011B0000F91FF90EF90DF90CF90BF90AF90089588
:1011C000DC01FB0188E4808389E4818384E48283F9
:1011D0001D969C911D979F709F5B93831D968D918B
:1011E0009C9124E0969587952A95E1F78F708F5B07
:1011F000848385E00895EF92FF920F931F93CF931E
:10120000DF93FB012081213871F52381223259F5CA
:10121000DC0112964C91248135814217130619F591
:10122000EC010B851C85F12CE12C0115110589F0D1
:10123000F801448155816281738180E80E949103A5
:101240008F3F980749F0E80EF91ED8010D911C91C7
:10125000ECCF81E08F87C701DF91CF911F910F9174
:10126000FF90EF90089590E080E0F6CFCF93DF936A
:10127000CDB7DEB769970FB6F894DEBF0FBECDBF0E
:10128000FC01DB018C918F5F8C939E012D5F3F4FA2
:101290008DE0D9011D928A95E9F729E0298384E040
:1012A0008A8391E09D8383E08E832A8721E22B87C6
:1012B0009C879D879F8722E2288B27E02B8B25E048
:1012C0002C8B8E8B20E430E0388F2F8B998F82818E
:1012D0008B8395858685998B8A8B838180688D8B9E
:1012E00049E150E0BE016F5F7F4F80E00E949103B3
:1012F00069960FB6F894DEBF0FBECDBFDF91CF91D8
:101300000895CF938091EB0681112CC0C1E0C0936A
:10131000DE06C093DF0684EE96E09093E1068093AC
:10132000E0061092E3061092E2068BEF93E09093B2
:10133000DB068093DA061092E6061092E50610921C
:10134000E8061092E706C093E906C093EA0681EC2E
:101350008093E4060E9435046AED76E00E947A04E8
:10136000C093EB068AED96E0CF910895CF93DF937B
:10137000EC01FB012A81848195812817190609F067
:101380004BC081819081913A79F4813029F083308A
:1013900039F48F898093F10081E0DF91CF91089536
:1013A0008230D1F5888DF6CF9132B1F58B3019F4BA
:1013B00082818F8BF1CF8A3019F48281888FECCFB4
:1013C000893051F5668177818381833079F48C8D02
:1013D0009D8D6817790701F58A8D9B8D0E94D50335
:1013E0008C8D9D8D90689D8F8C8FD6CF823051F4DF
:1013F0006130710589F461E070E0CE0149960E9488
:10140000D503CACF813041F46830710529F468E012
:1014100070E0CE010E96F3CF80E0BFCFFB012081BC
:101420002138B1F42381223299F4DC0112964C91D7
:101430001297248135814217130651F421E0579603
:101440002C9345E450E06CEA72E080E80C94910340
:1014500090E080E00895CF93DF93CDB7DEB7699732
:101460000FB6F894DEBF0FBECDBFFC01DB019C912F
:101470009F5F9C939E012D5F3F4F81E1D9011D929B
:101480008A95E9F729E0298384E08A8391E09D83A6
:1014900083E08E839F8398872A8721E22B879C870E
:1014A0009D879F8722E2288B25E4298B27E02B8BC1
:1014B00025E02C8B8E8B20E430E0388F2F8B998F9A
:1014C00082818B83838180688D8B49E150E0BE01EE
:1014D0006F5F7F4F80E00E94910369960FB6F8948A
:1014E000DEBF0FBECDBFDF91CF910895FC01828199
:1014F0008F5BFB01808381E008950F931F93CF934F
:10150000DF93EB018A010E9481099801AE016AE034
:10151000DF91CF911F910F910C94AB08CF93DF9384
:1015200000D0CDB7DEB72091D607382F330F21700A
:10153000232B2983990F881F8827881F892B8A834B
:1015400042E050E0BE016F5F7F4F84ED97E00E9464
:101550007D0A0F900F90DF91CF9108950F931F9305
:10156000CF93DF93EB018A010E9481099801AE01BC
:1015700061E0DF91CF911F910F910C94AB08CF9355
:10158000DF9300D000D0CDB7DEB79091E707998305
:101590008A836B834C8344E050E0BE016F5F7F4FD2
:1015A00085EE97E00E94AE0A0F900F900F900F907B
:1015B000DF91CF9108959091E7078095892398173F
:1015C00039F08093E70740E060E080E00C94BF0AC8
:1015D00008959091E707892B981739F08093E707D2
:1015E00040E060E080E00C94BF0A0895CF93DF9361
:1015F000EC010E948109AE014C5F5F4F28E030E0B2
:1016000062E0DF91CF910C94AB0890E080E0089508
:101610000F931F93CF93DF93EB018A010E948109FF
:101620009801AE0164E0DF91CF911F910F910C946E
:10163000AB08E2E1F8E030E020E0419151912F5F0A
:101640003F4F452B79F4220F331FF901E05FF74F2D
:101650009183808348E050E062E178E080E198E0A7
:101660000C94080B2430310541F7F4CFE0E1F8E0A9
:10167000228133812817390711F41382128232969E
:1016800028E0E831F207A1F748E050E062E178E0B5
:1016900080E198E00C94080BCF92DF92EF92FF92DA
:1016A0001F93CF93DF9361E08FE00E94430661E0D8
:1016B0008EE00E94430661E080E10E94430661E003
:1016C0008AE00E94430698E0E92E94E0F92ED0E0EB
:1016D000F70111917F0160E0812F0E94430683E0B2
:1016E000C82E84E0D82EC0E0F60181916F010E94DF
:1016F000D005892B69F4CC0FCC0F81E68D0F8C0FB0
:10170000DF91CF911F91FF90EF90DF90CF900895E0
:10171000CF5FC53049F761E0812F0E944306DF5F4C
:10172000D430B1F680E0ECCFFC019C01285F3F4F44
:1017300090E080E044814111019614823196E217D5
:10174000F307C1F70895CF93DF93DC0190E2960F82
:101750009830B0F414968C91149721E030E001C0D9
:10176000220F9A95EAF7442341F0282B14962C93E4
:1017700081E090E0DF91CF91089520952823F6CF66
:10178000FD0136964423D1F0CD010C96EF0129914D
:10179000621771F3C817D907D1F790E080E0219163
:1017A000211105C0A80FB91F16966C93E1CF0196C1
:1017B00086309105A1F790E080E0DCCF90E080E0FA
:1017C0002191621305C0A80FB91F16961C92D0CFA5
:1017D000019686309105A1F7EECFCF92DF92FF926E
:1017E0000F931F93CF93DF938C01F42EE62FF0E03D
:1017F000EE0FFF1FE455FF4FC590D490D801ED9137
:10180000FC910484F585E02D6C2DC8010995EC014F
:10181000892B11F4F11070C0D0FE0CC0D801ED91ED
:10182000FC910484F585E02D4F2D60EEC8010995EB
:10183000C82BD92BD1FE0CC0D801ED91FC910484AA
:10184000F585E02D4F2D61EEC8010995C82BD92BE8
:10185000D2FE0CC0D801ED91FC910484F585E02DF9
:101860004F2D62EEC8010995C82BD92BD3FE0CC0B1
:10187000D801ED91FC910484F585E02D4F2D63EEA8
:10188000C8010995C82BD92BD4FE0CC0D801ED9105
:10189000FC910484F585E02D4F2D64EEC801099577
:1018A000C82BD92BD5FE0CC0D801ED91FC91048436
:1018B000F585E02D4F2D65EEC8010995C82BD92B74
:1018C000D6FE0CC0D801ED91FC910484F585E02D85
:1018D0004F2D66EEC8010995C82BD92BD7FE0CC039
:1018E000D801ED91FC910484F585E02D4F2D67EE34
:1018F000C8010995C82BD92BCE01DF91CF911F913B
:101900000F91FF90DF90CF9008950F931F93CF9387
:10191000DF93EC0140E00E94ED0B8C01892B39F044
:10192000E881F9810284F385E02DCE010995C80193
:10193000DF91CF911F910F9108950F931F93CF9334
:10194000DF93EC0141E00E94ED0B8C01892B39F013
:10195000E881F9810284F385E02DCE010995C80163
:10196000DF91CF911F910F910895FF920F931F93D5
:10197000CF93DF938C01F62E0E949D0CEC01892BF6
:1019800021F06F2DC8010E94850CCE01DF91CF910F
:101990001F910F91FF900895CF93DF93EC0160E0CA
:1019A0008E810E94430661E08E810E94430660E0C2
:1019B0008E810E9443068BE891E00197F1F7DF9159
:1019C000CF910895CF92DF92EF92FF920F931F93E2
:1019D000CF93DF936C017C0187E0E80EF11CD0E02F
:1019E000C0E0062F10E0B8010C2E02C07595679577
:1019F0000A94E2F76170F70181917F010E9443062A
:101A00002196C430D10579F7C601DF91CF911F919E
:101A10000F91FF90EF90DF90CF900C94CC0CCF9271
:101A2000DF92EF92FF920F931F93CF93DF93EC011E
:101A3000F62E642F8C810E9443068D818F3F19F012
:101A400060E00E9443060F2D10E08F8584FF25C0C3
:101A50006E0187E0C80ED11CF12CE12CB8010E2CD0
:101A600002C0759567950A94E2F76170F60181915D
:101A70006F010E944306FFEFEF1AFF0A88E0E816A5
:101A8000F10461F7CE01DF91CF911F910F91FF908B
:101A9000EF90DF90CF900C94CC0CB80184E075955A
:101AA00067958A95E1F7CE010E94E20C6F2DCE0179
:101AB000DF91CF911F910F91FF90EF90DF90CF902A
:101AC0000C94E20C40E0682F86E298E00C940F0D35
:101AD000CF93DF93823029F49091350898609093EA
:101AE00035088093390810923A0880E480933B08C7
:101AF00080E180933C0880E580933D0861E080911F
:101B00002A080E94710680912B088F3F19F061E02E
:101B10000E94710661E080912C080E947106C6E265
:101B2000D8E09E01265238408091350884FD0BC0D4
:101B300084E090E021962817390744F461E08E8113
:101B40000E947106EECF88E090E0F4CF8BE39DE039
:101B50000197F1F760E080912A080E94430660E057
:101B600080912C080E94430680912B088F3F19F02A
:101B700060E00E9443068091350884FD39C063E02F
:101B800086E298E00E94E20CCBE4D6E4CE01019715
:101B9000F1F763E086E298E00E94E20C2197F1F70A
:101BA00063E086E298E00E94E20C83E592E0019710
:101BB000F1F762E086E298E00E94E20C809135083D
:101BC00080620E94620D84E0809336088CE00E945F
:101BD000620D81E00E94620D8BE39FE10197F1F7B6
:101BE00082E08093370886E0DF91CF910C94620DFC
:101BF00080620E94620D8BE496E40197F1F7809178
:101C0000350880620E94620D83E592E00197F1F74A
:101C10008091350880620E94620DD0CF9091390882
:101C2000691710F06FEF690FE62FF0E0EA5DF74FEC
:101C30009489890F80680C94620DCF93DF93EC0137
:101C400061E080E00E940E0E4C815D8168817981A7
:101C500086E298E0DF91CF910C94080482E00E9424
:101C6000620D8BE39FE10197F1F7089541E00E9437
:101C70000F0D81E090E008950F931F93CF93DF93B2
:101C80008B0128E0829FC001112480640E94620DB4
:101C9000E801085F1F4F699186E298E00E94360EC6
:101CA000C017D107C1F7DF91CF911F910F91089510
:101CB000CF93DF93EC0188819981009711F00E9406
:101CC0009623198218821D821C821B821A82DF9140
:101CD000CF910895FC0180819181009711F00C94BF
:101CE00096230895FB0101900020E9F73197AF0199
:101CF000461B570BDC01ED91FC910280F381E02D36
:101D000009948F929F92AF92BF920F931F93CF939C
:101D1000DF93CDB7DEB7A1970FB6F894DEBF0FBE45
:101D2000CDBF19A2423008F44AE08E010F5D1F4F6B
:101D3000842E912CB12CA12CA50194010E94D222B9
:101D4000E62FB901CA01EA3004F5E05DD801EE934F
:101D50008D01232B242B252B79F790E080E0109721
:101D600029F0BD0186E298E00E94720EA1960FB69E
:101D7000F894DEBF0FBECDBFDF91CF911F910F91C1
:101D8000BF90AF909F908F900895E95CDFCFCF9385
:101D9000DF93FC01448155816081718188E597E082
:101DA0000E947108EC016EE674E088E597E00E94FD
:101DB000720E8C0F9D1FDF91CF910895CF93DF930B
:101DC000BC0188E597E00E94720EEC016EE674E0BB
:101DD00088E597E00E94720E8C0F9D1FDF91CF91D6
:101DE00008950C94720EFC0124813581232B39F463
:101DF00021E0FB018081882349F020E007C0808139
:101E000091810E94E52421E0892BB9F7822F089562
:101E10000F931F93CF93DF938C01EB01FC01808123
:101E200091810097E1F06881798161157105A9F0D0
:101E3000428153812C813D814217530770F00E94EB
:101E4000EE248C819D81F801958384831D821C8200
:101E5000DF91CF911F910F9108950E949623888161
:101E60009981F801918380838A819B819383828306
:101E70008C819D8195838483198218821B821A82AA
:101E8000E5CF0F931F93CF93DF93EC018881998166
:101E9000009759F02A813B812617370730F081E0FF
:101EA000DF91CF911F910F9108958B016F5F7F4F4D
:101EB0000E941F24009759F0998388831B830A830B
:101EC0002C813D81232B59F7FC011082E8CF80E063
:101ED000E7CFEF92FF920F931F93CF93DF9361159C
:101EE000710541F480E0DF91CF911F910F91FF9038
:101EF000EF90089541155105B1F07B01EC010C8183
:101F00001D81040F151FB8010E94410F882351F352
:101F1000288139818C819D81B701820F931F0E9496
:101F2000EE241D830C8381E0DECFCF93DF93EC01A1
:101F3000FB0101900020E9F73197AF01461B570BD9
:101F40000E94690F811103C0CE010E94580ECE017C
:101F5000DF91CF910895CF93DF93EC01FB01448192
:101F60005581608171810E94690F811103C0CE018A
:101F70000E94580ECE01DF91CF910895EF92FF920B
:101F80000F931F93CF93DF93EC017B018A01BA017A
:101F90000E94410F81110BC0CE010E94580ECE014C
:101FA000DF91CF911F910F91FF90EF9008951D83C6
:101FB0000C83B701888199810E94EE24F0CFFB0148
:101FC00001900020E9F73197AF01461B570B0C94A5
:101FD000BE0F0F931F93CF93DF93CDB7DEB76197FB
:101FE0000FB6F894DEBF0FBECDBF8C01CB01F80158
:101FF0001182108213821282158214824AE0BE017D
:102000006F5F7F4F0E945B22BE016F5F7F4FC801F1
:102010000E94DF0F61960FB6F894DEBF0FBECDBFF2
:10202000DF91CF911F910F9108950F931F93CF933D
:10203000DF93CDB7DEB729970FB6F894DEBF0FBE9A
:10204000CDBF8C01862FF80111821082138212827B
:10205000158214824AE0BE016F5F7F4F90E00E94BC
:102060005B22BE016F5F7F4FC8010E94DF0F299680
:102070000FB6F894DEBF0FBECDBFDF91CF911F9199
:102080000F910895CF93DF93EC01FB01861797071B
:1020900049F0608171816115710541F0448155817C
:1020A0000E94BE0FCE01DF91CF9108950E94580E7D
:1020B000F9CFCF93DF93EB01BC018AE198E00E9456
:1020C0004210D0933907C093380781E080933A07D4
:1020D000DF91CF910895FC01118210821382128248
:1020E00015821482FB0101900020E9F73197AF01BE
:1020F000461B570B0C94BE0F0F931F93CF93DF9388
:1021000000D0CDB7DEB78C0160E774E00E946B10A1
:102110000E94060597FD0EC08A30910559F089830B
:102120001A8241E050E0BE016F5F7F4FC8010E94FC
:10213000690FEECFC8010F900F90DF91CF911F91E3
:102140000F9108950F931F93CF93DF9300D000D08A
:1021500000D0CDB7DEB7803208F0F6C0662309F4B0
:10216000DAC081508E3108F027C0E82FF0E0E55446
:10217000FF4E0C94F422D910E710E910EB10ED108B
:10218000DC10DC10EF10F710FB10011106110C1120
:10219000121117111A111E1122113E11441153115F
:1021A00059116C11DC10DC10DC10DC10DC10DC10C0
:1021B000761181E00E94E90A26960FB6F894DEBFF8
:1021C0000FBECDBFDF91CF911F910F91089582E097
:1021D000F1CF84E0EFCF88E0EDCF80E1EBCF6091ED
:1021E0000301619540E080E00E94BF0AE5CF40E036
:1021F00060910301F8CF8091030140E060E0819598
:10220000F3CF40E060E080910301EECF80910301C5
:10221000819540E0682FE8CF80910301682F619598
:1022200040E0E2CF8091030140E0682FE8CF809149
:102230000301EFCF4091020160E0D5CF4091020150
:102240004195FACF8091030188371CF48F5F80930A
:10225000030100910301002E000C110B61E774E0F3
:10226000CE0101960E946B10B801CE0101960E942A
:102270005910CE0101960E946A0E9ECF80910301F3
:1022800082303CF38150E3CF8091020184311CF411
:102290008F5F8093020100910201002E000C110B50
:1022A00068E774E0DDCF809102018230A4F38150B1
:1022B000F0CF80910001909101018B30910528F0C1
:1022C000019790930101809300010091000110910A
:1022D00001016FE774E0C4CF80910001909101018A
:1022E000843F21E0920788F70196EBCF60E886EF04
:1022F00097E00E949D0C63E786EF97E00E949D0C9B
:1023000060E886EF97E00E94850C63E786EF97E030
:102310000E94850C51CF833099F038F4813061F000
:10232000823009F049CF82E008C0843059F085300E
:1023300009F042CF80E101C081E00E94DB0A3CCF7E
:1023400084E0FBCF88E0F9CFECE4E80FED3008F053
:1023500072C0662309F464C0EC3008F02DCFF0E0C1
:10236000EC54FE4E0C94F422C011C911CE11D111BF
:10237000D811DF11E611ED11F411FB11021209124F
:1023800082EE90E00E94190B82EE90E00E94360BE4
:1023900013CF89EE90E00E94190B0ECF8AEE90E0E9
:1023A000FACF8DEC90E00E94190B8DEC90E0EECF0F
:1023B00087EB90E00E94190B87EB90E0E7CF85EB6D
:1023C00090E00E94190B85EB90E0E0CF86EB90E067
:1023D0000E94190B86EB90E0D9CF82E991E00E9430
:1023E000190B82E991E0D2CF8AE891E00E94190BA3
:1023F0008AE891E0CBCF83E292E00E94190B83E25E
:1024000092E0C4CF84E292E00E94190B84E292E051
:10241000BDCF85E292E00E94190B85E292E0B6CF33
:10242000853B31F0863B09F0C7CE8AEE90E0AECF17
:1024300089EE90E0ABCF94E1980F943030F56623AD
:10244000C9F08D3E79F08E3E91F08C3E09F0B4CE0D
:102450008091D6078111B0CE81E08093D60790E0BD
:1024600080E002C08AE090E00E948E0AA5CE86EF4E
:102470009FEFFACF8C3E09F09FCE8091D60788233C
:1024800009F49ACE1092D607EACF8C3F68F0662303
:1024900009F492CE8C3F09F08FCE6AE176E086EFA8
:1024A00097E00E94F10E88CE662331F0682F86EF08
:1024B00097E00E949D0C80CE682F28CF1F93CF936A
:1024C000DF9300D000D000D0CDB7DEB7182F81E069
:1024D00090E0909301018093000182E00E94680DDA
:1024E00066E874E086E298E00E94F10E60E082E027
:1024F0000E940E0E612F70E090E080E04AE00E94A2
:10250000810E81E1189FB0011124695B7E4FCE01DD
:1025100001960E946B10CE0101960E941D0ECE0105
:1025200001960E946A0E1093510764EF71E080E0FB
:1025300090E00E94A50726960FB6F894DEBF0FBE66
:10254000CDBFDF91CF911F9108951F920F920FB6CB
:102550000F9211248F939F938091E1009091E1005D
:10256000937F9093E10083FF0FC01092E90091E008
:102570009093EB001092EC0092E39093ED00109298
:10258000530798E09093F00082FF22C093E090936D
:10259000E9009091F200992319F09AE39093E800F2
:1025A00090910907992341F09091090791509093D8
:1025B0000907911101C05D9A90915207992341F04A
:1025C00090915207915090935207911101C0289A0F
:1025D00084FF18C08091E2008E7E81608093E200CB
:1025E0008091E1008F7E8093E10080910B078E7EC9
:1025F000806180930B079F918F910F900FBE0F907A
:102600001F90189580FFF7CF8091E2008E7E806149
:102610008093E2008091E1008E7E8093E1008091C2
:102620000B078E7E8160E5CF1F920F920FB60F923F
:102630001124CF92DF92EF92FF920F931F932F936B
:102640003F934F935F936F937F938F939F93AF933A
:10265000BF93EF93FF93CF93DF93CDB7DEB76C9724
:10266000DEBFCDBF1092E9008091E80083FF25C056
:1026700068E0CE0145960E94C80382EF8093E8008F
:102680008D8987FF39C09091E80090FFFCCF982F8B
:10269000907609F034C19E894F89588D2F89F88C26
:1026A000911131C0803861F580910C078093F10061
:1026B0001092F1008EEF8093E8006C960FB6F894BC
:1026C000DEBF0FBECDBFDF91CF91FF91EF91BF91E4
:1026D000AF919F918F917F916F915F914F913F91BA
:1026E0002F911F910F91FF90EF90DF90CF900F905F
:1026F0000FBE0F901F9018959EEF9093E800C7CFE4
:102700001092F100D5CF913059F48111D3CF4130DF
:10271000510581F680910C078D7F80930C07CACFFD
:10272000933049F48111C6CF4130510519F680919B
:102730000C078260F2CF953041F48091E80080FF71
:10274000FCCF20682093E300B5CF963009F0A9C0F4
:102750000B8D1C8D22E01092E90010920707109259
:102760000607F2122EC010920507109204070E946D
:1027700049041F8299E09983FA8291E09E8390EA4E
:1027800098879AEF99872091060730910707275F6E
:102790003F4F3C832B838D831092E90010920707F3
:1027A00010920607109305070093040749E050E0D4
:1027B000BE016F5F7F4F80E00E9491030E94490439
:1027C00079CF10930507009304070E943504DC01BC
:1027D00012960D911C910115110509F44BC1D801F8
:1027E000ED91FC910480F581E02DBE016B5E7F4F81
:1027F000C8010995009709F038C1F80100851185D5
:10280000EACFF3E0FF120EC08F89882309F440C09D
:10281000823061F440E860E180E993E00E9418179B
:10282000811148CF81E28093EB0047CF813029F4BA
:1028300040E86BE084E893E0F1CF833099F70E94A1
:102840003504DC011296ED90FC908E010F5F1F4F56
:102850006801E114F10479F0D701ED91FC91068053
:10286000F781E02DB801C7010995080F111DF70187
:10287000E084F184EECFD8011C92F6010190002093
:10288000E9F73197BF016C197D0940E0C601C6CF59
:102890006EE673E0FB01449150E080E80E949103F2
:1028A00009CF973009F4BECF983021F481E08093AE
:1028B000F10000CF993009F0FDCE837009F0B2CF5E
:1028C000E5E0F1E081E031E096E32191222371F02F
:1028D0008093E9003093EB00DF0111972C91209356
:1028E000EC009093ED008F5F873079F78EE780934F
:1028F000EA001092EA008F8980935307DBCE8B8D1C
:102900009C8D1092E9001092070710920607909391
:10291000050780930407898D81118CC08E899D895C
:10292000913A49F4813209F07DCF47E050E06FE001
:1029300071E080E0B3CF913209F074CF833269F453
:102940008F89988DB0E0A0E080930B0190930C01EB
:10295000A0930D01B0930E01ADCE803239F467E043
:1029600070E08FE091E00E94D503A4CE823209F09E
:10297000A1CE8F8980931601EEEFFFE785919491A8
:102980008B3F9C4D51F1E0E0F8E080910F01909178
:102990001001A0911101B0911201803B9440A1055A
:1029A000B105F1F48091160180FD1AC0EE3F8AE076
:1029B000F80789F587E797E7918380838091600026
:1029C0008093080788E19BE00FB6F894A895809360
:1029D00060000FBE909360006DCEEEEFFAE0D5CFB1
:1029E000808191818737974709F064CEA8958091BF
:1029F0006000886180936000809108078093600088
:102A0000EE3F2AE0F20789F08091FE0A9091FF0ADA
:102A1000918380834FCE808191818737980751F2CF
:102A20009093FF0A8093FE0AC5CF1092FF0A10927E
:102A3000FE0A40CE0E943504DC0112960D911C91D5
:102A40000115110509F4EECED801ED91FC9101902C
:102A5000F081E02DBE016B5E7F4FC80109958111A9
:102A600029CEF80100851185EBCF181619060CF454
:102A700021CED8CEF1E0FF12C4CE62E773E00ACFD8
:102A80001F920F920FB60F9211242F933F938F93A3
:102A90009F93AF93BF938091540790915507A09156
:102AA0005607B09157073091F30623E0230F2D37D7
:102AB00058F50196A11DB11D2093F306809354078C
:102AC00090935507A0935607B09357078091F4064B
:102AD0009091F506A091F606B091F7060196A11D1A
:102AE000B11D8093F4069093F506A093F606B0937B
:102AF000F706BF91AF919F918F913F912F910F90CA
:102B00000FBE0F901F90189526E8230F0296A11D67
:102B1000B11DD2CF1F920F920FB60F9211242F9397
:102B20003F934F935F936F937F938F939F93AF9355
:102B3000BF93EF93FF93E091EF03F091F0030995BA
:102B4000FF91EF91BF91AF919F918F917F916F9185
:102B50005F914F913F912F910F900FBE0F901F905B
:102B600018951F920F920FB60F9211242F933F9337
:102B70004F935F936F937F938F939F93AF93BF9385
:102B8000EF93FF93E091ED03F091EE030995FF9130
:102B9000EF91BF91AF919F918F917F916F915F91D5
:102BA0004F913F912F910F900FBE0F901F9018954E
:102BB0001F920F920FB60F9211242F933F934F93B2
:102BC0005F936F937F938F939F93AF93BF93EF9395
:102BD000FF93E091EB03F091EC030995FF91EF91E6
:102BE000BF91AF919F918F917F916F915F914F9125
:102BF0003F912F910F900FBE0F901F9018951F922D
:102C00000F920FB60F9211242F933F934F935F9320
:102C10006F937F938F939F93AF93BF93EF93FF93A4
:102C2000E091E903F091EA030995FF91EF91BF91DB
:102C3000AF919F918F917F916F915F914F913F9154
:102C40002F910F900FBE0F901F9018951F920F920B
:102C50000FB60F9211242F933F934F935F936F936F
:102C60007F938F939F93AF93BF93EF93FF93E091E5
:102C7000E703F091E8030995FF91EF91BF91AF91C0
:102C80009F918F917F916F915F914F913F912F9184
:102C90000F900FBE0F901F9018951F920F920FB6B6
:102CA0000F9211242F923F924F925F926F927F92D8
:102CB0008F929F92AF92BF92CF92DF92EF92FF924C
:102CC0000F931F932F933F934F935F936F937F9334
:102CD0008F939F93AF93BF93CF93DF93EF93FF9324
:102CE0008091D6069091D70601969093D70680934F
:102CF000D60620910001309101018217930708F454
:102D000071C010E000E070E8472E512CE5E02E2E57
:102D1000F9E13F2EC801880F991F60E4662E712CDF
:102D2000082E02C0759467940A94E2F7720102C0FB
:102D3000F594E7948A95E2F7912C812CC801835C85
:102D4000984F6C01D801A35FB84F5D018091510786
:102D5000289CE001299CD00D1124FE01389EE00D35
:102D6000F11D1124E95AFD4F848190E09C01262138
:102D70003721232B29F19C012E213F21C401880FEB
:102D8000991F880F991F232B09F44FC08A0D9B1D93
:102D9000DC018C918823A1F0E00FF11F61E08081BC
:102DA0000E94A21080915107389EC00DD11D1124A0
:102DB000C95ADD4FC00FD11F60E088810E94A21068
:102DC000BFEF8B1A9B0A85E08816910409F0BECFED
:102DD0000F5F1F4F0430110509F09CCF1092D706EA
:102DE0001092D606FF91EF91DF91CF91BF91AF91F5
:102DF0009F918F917F916F915F914F913F912F9113
:102E00001F910F91FF90EF90DF90CF90BF90AF9008
:102E10009F908F907F906F905F904F903F902F90FA
:102E20000F900FBE0F901F9018958C0D9D1DB0CF69
:102E3000EF92FF920F931F93CF93DF93F82E192FEA
:102E4000E62E042F81E0860F880F0E94630383E043
:102E50000E946303CF2DD12FEC0EFD2EF11CCE1559
:102E6000DF05B9F007FF13C0FE0184910E946303E0
:102E7000182F80E00E946303812321968111EFCFF8
:102E8000DF91CF911F910F91FF90EF90089588816E
:102E9000EDCF81E0F5CFFC01A385B485109771F4E7
:102EA0007487638785859685DB0114962D913C9107
:102EB000820F931F968785870895DC018D919C91E1
:102EC00011970097D1F76D937C93ECCFCF9310922D
:102ED0005B0710925A0788EE93E0A0E0B0E0809381
:102EE0005C0790935D07A0935E07B0935F0780E156
:102EF00094E090935907809358078FEF9FEF90933A
:102F0000650780936407C1E0C093AC07C093AD0729
:102F10008EEB97E09093AF078093AE071092B107C6
:102F20001092B0071092B5071092B40782E294E0B5
:102F30009093A9078093A80780E394E09093B30748
:102F40008093B207C093BF07C093C0071092C10718
:102F50001092C3071092C2071092C5071092C407BF
:102F600081EC8093BE070E94350468EA77E00E94F6
:102F70007A041092D60782E494E09093D507809368
:102F8000D4078091CC07811112C01092C70710920C
:102F9000C60781EA93E09093C9078093C80788E346
:102FA00090E09093CB078093CA07C093CC070E9410
:102FB000810966EC77E00E944B171092E70788E4DE
:102FC00094E09093E6078093E5078091DD078111F7
:102FD00013C01092D8071092D70789ED93E0909311
:102FE000DA078093D9078BE290E09093DC07809317
:102FF000DB0781E08093DD070E94810967ED77E0C0
:103000000E944B171092F9071092F8078EE494E093
:103010009093F7078093F6078091EE07811113C014
:103020001092E9071092E80784E094E09093EB0790
:103030008093EA078BE390E09093ED078093EC0791
:1030400081E08093EE070E94810968EE77E00E949C
:103050004B1780E694E090931108809310088091BC
:103060000808811113C010920308109202088FE320
:1030700094E0909305088093040889E190E0909390
:1030800007088093060881E0809308080E94810960
:1030900062E078E00E944B1710923F0810924608B9
:1030A00010924D0810924E0810924F08109250083E
:1030B00081E080934C088093490810924A0892E07E
:1030C00090934B0880933E088CE390E090934308E4
:1030D000809342080E94FA22909348088093470800
:1030E000009709F469C02CE3FC0111922A95E9F7D5
:1030F00084E190E0909341088093400884E090E060
:10310000909345088093440880913F08882341F0BC
:1031100061E084E00E94710660E084E00E94430662
:10312000E9E8F4E0E491F0E0EE0FFF1FE958FB4F0F
:10313000859194919093520880935108ECE5F4E0C6
:10314000E491E0935308109229081092280886E62B
:1031500094E0909327088093260883E080932A08C0
:103160008FEF80932B0882E080932C088FE0809370
:103170002D088EE080932E0880E180932F088AE04E
:103180008093300810923108109232081092330860
:10319000109234081092350881E00E94680D60E7B3
:1031A00074E080E298E00E946B1060E774E08AE1CE
:1031B00098E0CF910C946B10109243081092420843
:1031C000109241081092400899CFCF93DF93CDB76A
:1031D000DEB7E7970FB6F894DEBF0FBECDBF789489
:1031E00084B5826084BD84B5816084BD85B582600C
:1031F00085BD85B5816085BD80916E0081608093BD
:103200006E00109281008091810082608093810025
:103210008091810081608093810080918000816035
:1032200080938000809191008260809391008091D2
:1032300091008160809391008091900081608093E3
:1032400090008091C10084608093C1008091C10092
:1032500082608093C1008091C10081608093C10031
:103260008091C30081608093C3008091C000826020
:103270008093C0008091C20081608093C2008091E1
:103280007A00846080937A0080917A0082608093D3
:103290007A0080917A00816080937A0080917A0030
:1032A000806880937A001092530710920C07109256
:1032B0000B078091D70081608093D70080EA8093CC
:1032C000D80089B5806189BD89B5826089BD09B49E
:1032D00000FEFDCF61E070E080E090E00E94A50775
:1032E0008091D8008F7C80618093D8008091E0002D
:1032F000807F8093E0008091E1008E7E8093E100EA
:103300008DE08093E200559A209A08E014E0D801FD
:10331000FD908D0161E08F2D0E94710661E08F2D7F
:103320000E944306B4E00C301B0789F738E0E32E17
:1033300034E0F32E03E014E062E0F80181918F01A4
:103340000E947106E016F106B9F782EB97E00E9441
:10335000940B82EB97E00E9435221092E70740E041
:1033600060E080E00E94BF0A1092D60790E080E003
:103370000E948E0A6FE371E081E00E943C0E67E3D9
:1033800071E082E00E943C0E6FE271E083E00E94F7
:103390003C0E67E271E084E00E943C0E6FE171E058
:1033A00085E00E943C0E67E171E087E00E943C0EE0
:1033B00082E00E94680D67E974E086E298E00E946E
:1033C000F10E61E080E00E940E0E68EA74E086E291
:1033D00098E00E94F10E8FEF9FEF90936507809326
:1033E0006407809144089091450897FD08C061E00A
:1033F0000E94710660E0809144080E94430681E0CB
:1034000080933F0814BC15BC16BC8AEF87BD85B5F8
:10341000886085BD85B5836085BD80916E008260C2
:1034200080936E0062E080E00E94710662E081E0BD
:103430000E94710682E00E94E70283E00E94E70298
:103440004FE05FE06FE070E090E080E00E947E027D
:103450000E94D20610E000E062E370E080E090E0BD
:103460000E94A50740E050E0BA01C8010E947E0218
:103470000F5F1F4F4FE05FE06FE070E0C8010E94F8
:103480007E020E94D2060331110531F740E050E080
:10349000BA0183E190E00E947E020E94D2068091F0
:1034A00051070E945E1278949E012F5F3F4F3901B1
:1034B000AE014B5D5F4F5BA74AA74B5F4FAB5524F7
:1034C000539488E597E00E946A05892B09F048C16A
:1034D00061E08FE00E94430661E08EE00E944306B7
:1034E00061E080E10E94430661E08AE00E944306B9
:1034F00068E074E07FA76EA7D12CC12CAEA5BFA554
:103500004D90BFA7AEA760E0842D0E944306C60180
:10351000880F991FE0E4F0E0082E02C0F595E795CA
:103520000A94E2F7FBABEAAB20E830E002C0359545
:1035300027958A95E2F73DAB2CABEDE0AE2EE7E0A8
:10354000BE2EA601435F584F4A016DE377E07DA789
:103550006CA7C601835C984F7C01A3E0B4E0B9ABD3
:10356000A8AB312C212C80915107B5E0B29D800190
:10357000B39D100D1124E9E1E89F000D111D1124E8
:10358000095A1D4FD80114962C9130E04CA95DA921
:1035900042235323E8A9F9A98191F9ABE8AB6AA9C1
:1035A0007BA926233723232B09F40BC5452B09F4CC
:1035B00001C5D4011C910E94D005F701892B09F0A7
:1035C00037C58081811104C01525D4011C93508218
:1035D000FFEF2F1A3F0A24E0820E911C34E0E30E25
:1035E000F11C45E02416310409F0BDCF61E0842DC3
:1035F0000E9443065FEFC51AD50A64E0C616D104DF
:1036000009F07CCF1091C10760E088E00E940E0EA7
:1036100064E010FF65E086E298E00E94360E60E00C
:103620008BE00E940E0E64E011FF65E086E298E0F8
:103630000E94360E60E08EE00E940E0E64E012FFE3
:1036400065E086E298E00E94360E80913D0788236F
:1036500009F49AC680913B0790913C07019690939C
:103660003C0780933B07893572E0970708F46DC6E5
:1036700086EF97E00E94940B892B21F086EF97E06C
:103680000E94F60A1092E70740E060E080E00E94A6
:10369000BF0A10E000E040E050E0BA01C8010E941B
:1036A0007E020F5F1F4F04311105A9F70E94D20659
:1036B000EDE3F7E01082D5011C92118211961C9265
:1036C0001197128212961C921297138213961C92D3
:1036D0003496B4E0AB0EB11C27E0E135F20751F7A8
:1036E0000E942E0E6CE376E086E298E00E94F10ED6
:1036F00061E080E00E940E0E6DE476E086E298E0E4
:103700000E94F10E61E08CE00E940E0E64EF71E009
:1037100080E090E00E94A50700E010E0E12CF12C91
:103720005AE0D52E61E1C62E0E944C0B85568031A1
:1037300008F0F2C5E82FF0E0E056F44E0C94F422C5
:10374000472049204B208C214120432045208C21BB
:10375000292295211A204D2093218C218C216C2126
:1037600080916E0010926E00C3010E947C10B30124
:1037700080E298E00E94080FC3010E946A0E18A21E
:103780001F8E1AA219A21CA21BA260E278E0CE0131
:103790004F960E944210CE014F960E94C70E69EBD1
:1037A00074E0CE014F960E94F30E882309F492C074
:1037B0006EEB74E0C3010E946B10C3010E941D0EEA
:1037C000C3010E946A0EF12CE12C6701870125E0FC
:1037D000422E580175E0A70EB11C4601801A910ACD
:1037E000F401E00FF11FE95AFD4F6081C8010E940A
:1037F0008D220F5F1F4F0A151B0591F74A9485E034
:10380000C80ED11C4110E5CF99E1E90EF11CA0E9E9
:10381000EA16A1E0FA06C9F697E4C92E91E0D92E7E
:1038200010E000E0F601E00FF11F6081C8018E0D8D
:103830009F1D0E948D220F5F1F4F0031110591F7D0
:10384000B0E1EB0EF11CE1E1CE0ED11CF0E9EF1678
:10385000F2E0FF0629F78FEC94E00E94DE0E60E9AB
:1038600072E0CE0143960E94E90F1A8219821C82EF
:103870001B821E821D82BE016D5E7F4FC3010E94AE
:1038800042106EED74E0C3010E94950F0E94C70EB6
:10389000C3010E946A0ECE0143960E946A0E609197
:1038A000510751E1659FB0011124695B7E4FC3014F
:1038B0000E946B10C3010E941D0EC3010E946A0E7C
:1038C000CE014F960E946A0E80916E0082608093B6
:1038D0006E00F7CD62EF74E0CE014F960E94F30EBA
:1038E000882309F46AC067EF74E0C3010E946B107B
:1038F000C3010E941D0EC3010E946A0EF12CE12C2F
:103900006701870185E0482E580125E0A20EB11C11
:103910004601801A910AC8010E948522F401E00F35
:10392000F11FE95AFD4F80830F5F1F4FA016B106AC
:1039300091F74A9435E0C30ED11C41103CC049E1D7
:10394000E40EF11C50E9E51651E0F506C9F617E45E
:10395000C12E11E0D12E10E000E0C8018E0D9F1D98
:103960000E948522F601E00FF11F80830F5F1F4F39
:103970000031110591F760E1E60EF11C71E1C70E0F
:10398000D11C80E9E81682E0F80629F760E972E0C8
:10399000CE0143960E94E90F1A8219821C821B8273
:1039A0001E821D82BE016D5E7F4FC3010E944210C8
:1039B00068E075E068CF8501A7CF6EE175E0CE01C4
:1039C0004F960E94F30E882309F4E0C064E275E08C
:1039D000C3010E946B10C3010E941D0EC3010E940F
:1039E0006A0E85E395E00E94DE0EB7E5EB2EB2E0AD
:1039F000FB2EB12C62E575E088E597E00E94F10EA0
:103A00006701A12C62E575E088E597E00E94F10E60
:103A100010E000E0F601E00FF11F80811F928F930C
:103A2000A4E5B5E0BF93AF937F926F920E94F52417
:103A3000B30188E597E00E94F10E0F900F900F9070
:103A40000F900F900F90043031F06BE575E088E532
:103A500097E00E94F10E0F5F1F4F05301105D1F660
:103A60006DE575E088E597E00E94F10EF4E0AF1691
:103A700031F06BE575E088E597E00E94F10EA394C4
:103A800025E0C20ED11C35E0A312BCCF6DE575E078
:103A900088E597E00E94F10E4FE06BE575E0B41207
:103AA00002C063ED76E088E597E00E94F10E6B2D91
:103AB000C3010E9415106FE575E0CE0143960E9488
:103AC0006B10B301CE0143960E94AB0F0E94C70E4C
:103AD000CE0143960E946A0EC3010E946A0EB394FF
:103AE00059E1E50EF11C60E1B61284CF83E695E062
:103AF0000E94DE0EA7E4EA2EA1E0FA2ED12C63E8A4
:103B000075E088E597E00E94F10E10E000E0F70113
:103B1000E00FF11F608188E597E00E94C2040F5F0B
:103B20001F4F0031110599F763E875E088E597E0CC
:103B30000E94F10E7FE0D71631F16BE575E088E564
:103B400097E00E94F10E6D2DC3010E9415106FE5E4
:103B500075E0CE0143960E946B10B301CE014396EF
:103B60000E94AB0F0E94C70ECE0143960E946A0EC0
:103B7000C3010E946A0ED39481E1E80EF11C90E12A
:103B8000D912BDCF8CCE63ED76E0D9CF65E875E074
:103B9000CE014F960E94F30E882309F406C26DE809
:103BA00075E0C3010E946B10C3010E941D0EC3018A
:103BB0000E946A0E60E774E0CE0149960E946B1085
:103BC0001C8A1B8A1E8A1D8A188E1F8A4AE0B3012E
:103BD0008FE090E00E945022B301CE0143960E94F4
:103BE000DF0F6EE975E0C3010E946B10BE016D5ED0
:103BF0007F4FC3010E94AB0F68EB75E00E94950FE9
:103C00000E94C70EC3010E946A0ECE0143960E9415
:103C10006A0E0AE060E774E0CE0149960E94DF0F69
:103C200088E597E00E946A05892BD1F388E597E043
:103C30000E946A05892B81F0C3010E947C10B301A8
:103C4000CE0149960E94080FC3010E946A0ECE0160
:103C500049960E94C70EEACF70E060E0CE01499617
:103C60000E945003DC018C9180332CF48AEB95E0A8
:103C70000E94DE0ECFCF70E060E0CE0149960E9438
:103C80005003FC0180818A338CF770E060E0CE0144
:103C900049960E945003DC011C9161E070E0CE0166
:103CA00049960E945003FC0180818033FCF261E060
:103CB00070E0CE0149960E945003DC018C918A335A
:103CC000ACF661E070E0CE0149960E9450031053BB
:103CD000FC019080F0ED9F0E109F900C11242FE0BE
:103CE000291520F2692DC3010E94151061ED75E0C0
:103CF000CE0143960E946B10B301CE0143960E9401
:103D0000AB0F6AED75E00E94950F0E94C70ECE01C1
:103D100043960E946A0EC3010E946A0E84EE95E0EB
:103D20000E94DE0E80E096E00E94DE0E39E1939E56
:103D3000C0011124AC01495A5D4F7A01812C682DD4
:103D4000C3010E9415106DE176E0CE0143960E94FA
:103D50006B10B301CE0143960E94AB0F0E94C70EB9
:103D6000CE0143960E946A0EC3010E946A0E1DA2F4
:103D70001EA21FA218A619A660E774E0CE014996FC
:103D80000E94DF0F88E597E00E946A05892BD1F336
:103D900088E597E00E946A05892B61F0C3010E94C3
:103DA0007C10B301CE0149960E94080FC3010E9406
:103DB0006A0EEECFBE016B5D7F4F6B0100E010E03D
:103DC000B02E0F3F110529F48AEB95E00E94DE0E1C
:103DD000CECFB801CE0149960E945003DC018C91F0
:103DE0000F5F1F4F803361F7B801CE0149960E94E3
:103DF0005003FC018081883719F7F2E04F2E4B0CFD
:103E000004E00B0D312CD6011C911295107F1C93F0
:103E1000A42CB12CB501CE0149960E945003FC019F
:103E200080818033F4F4B501CE0149960E9450039D
:103E3000DC018C91813454F1B501CE0149960E9488
:103E40005003DC018C9187340CF5B501CE01499605
:103E50000E945003FC018081180F1753D6011C9358
:103E600017C0B501CE0149960E945003FC01808124
:103E70008A33CCF6B501CE0149960E945003DC018D
:103E80008C91180F1053F601108302C03324339421
:103E900043940411B8CFBFEFCB1ADB0AEFA9EC11A2
:103EA0008ECF311091CF8DA1D7018C938EA1119619
:103EB0008C9311978FA112968C93129788A51396C5
:103EC0008C93139789A514968C9310E000E0F7016A
:103ED000E00FF11F80811F928F93E4E5F5E0FF93DF
:103EE000EF937F926F920E94F524B30188E597E0EB
:103EF0000E94F10E0F900F900F900F900F900F9067
:103F0000043031F06BE575E088E597E00E94F10E32
:103F10000F5F1F4F05301105D1F66EE674E088E59E
:103F200097E00E94720E682DC3010E94151063E293
:103F300076E0CE0143960E946B10B301CE0143960A
:103F40000E94AB0F68E276E00E94950F0E94C70EB8
:103F5000CE0143960E946A0EC3010E946A0E8394AA
:103F600035E0E30EF11C45E08412E9CE692DC30172
:103F70000E94151061ED75E0CE0143960E946B1012
:103F8000B301CE0143960E94AB0F68E276E00E9437
:103F9000950F0E94C70ECE0143960E946A0EC30180
:103FA0000E946A0ECE01499678CC80E396E00E948A
:103FB000DE0E75CC0E94D005892BC9F5D7015C9225
:103FC00007CB452BD1F0D401BC91BEAB0E94D005EC
:103FD000892B81F4F70180818111FACA6EA96525C8
:103FE000D4016C93F801EC0DFD1D80810E94A2109C
:103FF000F701EDCAD7011C92EBCA0E94D005F70168
:104000002081892B51F42111E3CAF801EC0DFD1D2B
:1040100061E080810E94A210D1CF222309F4D8CA86
:10402000F801EC0DFD1D60E080810E94A210F701F7
:104030001082CECA13E061E0002309F478C18DE05C
:104040000E940E0EE12E02E060E3610F86E298E02E
:104050000E94360E1E2DFD9C100D11240E942E0E66
:104060006CE376E0023041F4103108F066C11C9D2B
:10407000B0011124695B7E4F86E298E00E94F10E48
:1040800038C114E0D8CF15E0D6CF16E0D4CF17E072
:10409000D2CF18E0D0CF19E0CECF023008F42EC135
:1040A000812F103108F47AC0133609F076C00E94CF
:1040B0002E0E6EE576E086E298E00E94F10E61E059
:1040C00080E00E940E0E6EE576E086E298E00E94A7
:1040D000F10E64EF71E080E090E00E94A50781E0BE
:1040E0000E94620D8BE39FE10197F1F78091360802
:1040F000982F9260909336088A600E94620D0E9409
:104100004C0B182FEFE9E80FE13108F0DCC0F0E0CC
:10411000E457FF4D0C94F422C520C320C120BF20DA
:10412000B520B720B920BD20AF20B120B320632136
:10413000A920AB20AD20BB209D2060E386E298E063
:104140000E94360E64E670E080E090E00E94A507D1
:10415000D6CF61E3F3CF62E3F1CF63E3EFCF64E364
:10416000EDCF65E3EBCF66E3E9CF67E3E7CF68E345
:10417000E5CF69E3E3CF6EE6E1CF6BE2DFCF6DE23F
:10418000DDCF6AE2DBCF6FE2D9CF809136088D7F39
:104190008093360888600E94620D80E00E945E1263
:1041A000809136088D7F8093360888600E94620D6A
:1041B00080913A078823A9F08F3F09F0EAC061E0B7
:1041C00080E00E940E0E6091510751E1659FB001A1
:1041D0001124695B7E4F86E298E00E94F10E1092F6
:1041E0003A07809136079091370704970CF41BC16A
:1041F00061E085EB0E94A21060E085EB0E94A210B6
:1042000080913607909137070497909337078093F2
:10421000360780E02FE0ACA5BDA590E0E92FE80FC0
:104220003D91332321F0F0E0EE5DF84F20839F5F56
:104230009430A1F78C5FACA5BDA51496BDA7ACA723
:10424000843149F742E2E42E47E0F42E10E000E02A
:10425000F701D1907F018D2D90E0B0E0A0E0BC018E
:10426000552744278824982EA92EBA2E4829592943
:104270006A297B294D29592B6A2B7B2BC8010E9467
:104280007E0280912107843131F4DD2021F0F70195
:104290003197DA94D0820F5F1F4F04311105C1F6B8
:1042A000843111F410922107809121078F5F809350
:1042B00021070E94D20680E090E0892B09F401C911
:1042C0000E940000FCC86AE070E080E090E00E947C
:1042D000A507111137CF13CF023081F461E08DE0D3
:1042E0000E940E0E6FE586E298E00E94360E01E015
:1042F000E12C64E670E080E090E012C00130C9F784
:1043000061E08CE00E940E0E6FE586E298E00E946C
:10431000360E00E0F12CEDCF6AE070E080E090E036
:104320000E94A50701CA10E086CE12E084CE8CE080
:104330000E940E0EF12E01E087CE6FE676E0133676
:1043400009F49ACE60E876E097CE61E976E0823CA7
:1043500031E0930731F08C3241E0940771F462EA66
:1043600076E0C3010E946B1070E060E0C3010E9420
:104370005910C3010E946A0E1BCF63EB76E08639A9
:10438000910509F015CFEDCF10923C0710923B0735
:104390000FCF813009F043C0C0903807D090390763
:1043A0001A8219821C821B821E821D826AE178E0B9
:1043B000C3010E94421061E080E00E940E0E64EC96
:1043C00076E086E298E00E94F10E61E080E00E94D3
:1043D0000E0E4D815E8169817A8186E298E00E94AD
:1043E00008040D2C000CEE08FF084AE0C701B601D6
:1043F000F7FE0EC041E06DE286E298E00E940F0DEC
:1044000066277727CB016C197D098E099F094AE041
:104410000E94810EC3010E946A0E80913A078F5F4D
:1044200080933A07DECE80913607909137078D3F13
:104430009F4F0CF0EECE61E086EB0E94A21060E090
:1044400086EB0E94A2108091360790913707049660
:10445000DCCE11E0F0CDBC01625F7F4FFC018381B7
:1044600048E050E080640C94D7070A970C942B2204
:104470008AE198E00E946A0E80E298E00E946A0E4B
:1044800080914708909148080E94962380914408A3
:104490009091450897FD03C060E00C947106089563
:1044A000BB274A3031F4992322F4BDE290958195DF
:1044B0009F4F0C945C22BB27FB015527AA27880F2E
:1044C000991FAA1FA41710F0A41B83955051B9F788
:1044D000A05DAA3308F0A95DA193009779F7B11107
:1044E000B1931192CB010C947522DC01FC01672F72
:1044F00071917723E1F7329704C07C916D937083BB
:104500006291AE17BF07C8F30895F999FECF92BD27
:1045100081BDF89A992780B50895262FF999FECF85
:104520001FBA92BD81BD20BD0FB6F894FA9AF99AD0
:104530000FBE019608952F923F924F925F926F9215
:104540007F928F929F92AF92BF92CF92DF92EF9223
:10455000FF920F931F93CF93DF93CDB7DEB7CA1BA4
:10456000DB0B0FB6F894DEBF0FBECDBF09942A88CF
:10457000398848885F846E847D848C849B84AA8477
:10458000B984C884DF80EE80FD800C811B81AA8104
:10459000B981CE0FD11D0FB6F894DEBF0FBECDBFCF
:1045A000ED010895A1E21A2EAA1BBB1BFD010DC04F
:1045B000AA1FBB1FEE1FFF1FA217B307E407F507D3
:1045C00020F0A21BB30BE40BF50B661F771F881FAF
:1045D000991F1A9469F760957095809590959B0145
:1045E000AC01BD01CF010895EE0FFF1F0590F491BE
:1045F000E02D09940F931F93CF93DF9382309105A1
:1046000010F482E090E0E0915608F091570830E015
:1046100020E0B0E0A0E0309799F42115310509F4CD
:104620004AC0281B390B24303105D8F58A819B817B
:104630006115710589F1FB0193838283FE0111C02D
:10464000408151810281138148175907E0F04817D2
:10465000590799F4109761F012960C9312971396DC
:104660001C933296CF01DF91CF911F910F91089546
:104670000093560810935708F4CF2115310551F0D7
:104680004217530738F0A901DB019A01BD01DF0190
:10469000F801C1CFEF01F9CF9093570880935608E6
:1046A000CDCFFE01E20FF31F819391932250310988
:1046B00039832883D7CF2091540830915508232B74
:1046C00041F42091F3033091F40330935508209383
:1046D00054082091F1033091F2032115310541F482
:1046E0002DB73EB74091F5035091F603241B350BCF
:1046F000E0915408F0915508E217F307A0F42E1B3F
:104700003F0B2817390778F0AC014E5F5F4F241735
:10471000350748F04E0F5F1F5093550840935408DB
:10472000819391939FCFF0E0E0E09CCFCF93DF9314
:104730000097E9F0FC01329713821282A09156088B
:10474000B0915708ED0130E020E01097A1F42081EE
:104750003181820F931F20915408309155082817FA
:10476000390709F061C0F0935508E0935408DF91D0
:10477000CF910895EA01CE17DF07E8F54A815B8102
:104780009E0141155105B1F7E901FB83EA83499187
:104790005991C40FD51FEC17FD0761F480819181F9
:1047A0000296840F951FE901998388838281938102
:1047B0009B838A83F0E0E0E012968D919C911397A1
:1047C0000097B9F52D913C911197CD010296820F7A
:1047D000931F20915408309155082817390739F64E
:1047E000309751F51092570810925608B09355081B
:1047F000A0935408BCCFD383C28340815181840FDE
:10480000951FC817D90761F44E5F5F4F8881998162
:10481000480F591F518340838A819B8193838283F0
:104820002115310509F0B0CFF0935708E0935608F1
:104830009ECFFD01DC01C0CF13821282D7CFB0E042
:10484000A0E0E5E2F4E20C949D228C01009751F483
:10485000CB010E94FA228C01C801CDB7DEB7E0E19E
:104860000C94B922FC01E60FF71F9C01225031097C
:10487000E217F30708F49DC0D901CD91DC9111979F
:10488000C617D70798F0C530D10530F3CE0104978D
:104890008617970708F3C61BD70B2297C193D193AE
:1048A0006D937C93CF010E949623D6CF5B01AC1A07
:1048B000BD0A4C018C0E9D1EA0915608B091570860
:1048C000512C412CF12CE12C109731F5809154089A
:1048D000909155088815990509F05CC04616570651
:1048E00008F058C08091F1039091F203009741F4D1
:1048F0008DB79EB74091F5035091F603841B950B3D
:10490000E817F90708F055C0F0935508E0935408EC
:10491000F90171836083A0CF8D919C9111971296BC
:104920006C90129713967C901397A815B90559F5BA
:104930006C0142E0C40ED11CCA14DB0420F1AC01AE
:104940004A195B09DA011296159780F06282738228
:1049500051834083D9016D937C93E114F10471F08C
:10496000D7011396FC93EE93129776CF22968C0F75
:104970009D1FF90191838083F301EFCFF0935708D6
:10498000E093560869CF4816590608F42C017D01BA
:10499000D3019ACFCB010E94FA227C01009749F003
:1049A000AE01B8010E94DC24C8010E949623870151
:1049B00053CF10E000E050CFFB01DC0102C00190BA
:1049C0000D9241505040D8F70895FB01DC018D91C4
:1049D000019080190110D9F3990B0895FB01DC01B6
:1049E00001900D920020E1F70895AEE0B0E0EBEF0A
:1049F000F4E20C94A9220D891E8986E08C831A8327
:104A000009838FEF9FE79E838D83AE01475E5F4FE3
:104A10006F89788DCE0101960E9418252F813885E7
:104A2000020F131FF80110822E96E4E00C94C522A9
:104A3000ABE0B0E0EEE1F5E20C949B227C013B019F
:104A40008A01FC0117821682838181FFC8C1CE01D1
:104A500001965C01F7019381F30193FD859193FF2A
:104A600081913F01882309F453C1853239F493FDC4
:104A7000859193FF81913F01853229F4B70190E040
:104A80000E940827E7CF912C212C312CFFE1F31550
:104A900038F08B3211F190F4803209F1833229F130
:104AA00037FC3CC020ED280F2A3050F536FE20C0E0
:104AB0008AE0989E200D1124922E06C08D3291F02E
:104AC000803371F7689430F8F30193FD859193FF7B
:104AD00081913F018111DACF21C0689431F8689447
:104AE00032F8F2CF689433F8EFCF689434F8ECCF13
:104AF000EAE02E9E200D1124222E689435F8E4CF92
:104B00008E3229F436FC04C1689436F8DDCF8C3639
:104B100019F4689437F8D8CF8836B1F2982F9F7D72
:104B200095549330E0F08336A1F18337C1F183359A
:104B300009F063C02801F2E04F0E511CF801C0805B
:104B4000D180692D70E036FC02C06FEF7FEFC601A7
:104B50000E94F2264C01689437F882010AC00C5F6B
:104B60001F4FFFE3F98388248394912C6501E89417
:104B700037F833FE2DC0522C8114910471F5552065
:104B800009F468CFB70180E290E00E9408275A94A8
:104B9000F6CFF801808189830E5F1F4FE4CF280193
:104BA000F2E04F0E511CF801C080D180692D70E0F9
:104BB00036FC02C06FEF7FEFC6010E94FD264C015C
:104BC0008201D5CFB70180E290E00E9408272A94A5
:104BD0002814190409F0B0F7CECFF60137FC8591FF
:104BE00037FE81916F01B70190E00E9408275110B4
:104BF0005A94F1E08F1A9108BFCF843619F08936A4
:104C000009F077C0F80137FE6BC060817181828145
:104C100093810C5F1F4FF32DFF763F2E97FF09C046
:104C200090958095709561957F4F8F4F9F4F6894B9
:104C300037F82AE030E0A5010E943827C82ECA18AC
:104C40008C2C432C36FE0CC0E89440F8C91440F478
:104C500034FE05C032FC03C0F32DFE7E4F2E892C9E
:104C600044FE95C0FE01EC0DF11D8081803309F0FA
:104C700087C0242D297E422E842D8870582E43FC17
:104C800095C040FE8FC09C2C821418F42C0C922CE2
:104C9000981844FE91C0B70180E390E00E94082775
:104CA00042FE09C088E790E041FE02C088E590E03E
:104CB000B7010E940827C91408F48AC0CA94D12CED
:104CC0009FEFC91AD90ACA0CDB1CF60182916F0149
:104CD000B70190E00E940827AC14BD04B1F74FCF94
:104CE00060817181072E000C880B990B0E5F1F4F9E
:104CF00092CFD32CE894D4F82AE030E0853739F10C
:104D0000232D297FD22E8F3601F148F48835A9F062
:104D1000F701868197812B96E2E10C94B7228037C8
:104D200049F08837A9F7D4FE02C06894D2F820E190
:104D300030E00DC06894D4F8F6CF34FE03C0822F63
:104D40008660D82E20E132E002C028E030E0F80191
:104D5000D7FE0FC060817181828193810C5F1F4FEC
:104D6000A5010E943827C82ECA183D2CE89437F8B0
:104D700067CF6081718190E080E00E5F1F4FF0CFC0
:104D800042FC02C0839478CF8394839475CF842DA2
:104D9000867809F471CFF6CFB70180E290E00E94E7
:104DA000082783948214C0F3512C73CF522C5818C7
:104DB000821408F46ECFF8CF842D867809F47BCF67
:104DC0008BE241FE80E247FC8DE2B70190E071CFBB
:104DD000B70180E390E00E9408279A946CCF8FEF90
:104DE0009FEF99CFFC010590615070400110D8F7FA
:104DF000809590958E0F9F1F0895FC016150704023
:104E000001900110D8F7809590958E0F9F1F0895FF
:104E10000F931F93CF93DF93182F092FEB018B81F3
:104E200081FD09C01FEF0FEF812F902FDF91CF91F0
:104E30001F910F91089582FF14C02E813F818C81B4
:104E40009D81281739073CF4E881F981CF0101964B
:104E50009983888310838E819F8101969F838E839F
:104E6000E3CFE885F985812F0995892BA1F3DACF66
:104E7000FA01AA27283051F1203181F1E8946F938B
:104E80006E7F6E5F7F4F8F4F9F4FAF4FB1E03ED031
:104E9000B4E03CD0670F781F891F9A1FA11D680FCF
:104EA000791F8A1F911DA11D6A0F711D811D911D02
:104EB000A11D20D009F468943F912AE0269F112477
:104EC0003019305D3193DEF6CF010895462F4770DB
:104ED000405D4193B3E00FD0C9F7F6CF462F4F7036
:104EE000405D4A3318F0495D31FD4052419302D094
:104EF000A9F7EACFB4E0A69597958795779567953A
:104F0000BA95C9F700976105710508959B01AC0139
:104F10000A2E06945795479537952795BA95C9F760
:104F2000620F731F841F951FA01D089512E0C3E533
:104F3000D2E004C0FE010E94F4222196C435D107BC
:064F4000C9F7F894FFCF51
:104F46000A00020100C18081000000FFFFFFFF0090
:104F5600E1000000000000060504040C1C18000E09
:104F660002021F11111F000E0A0A1F1B1B1F00043D
:104F76000A00000A04001F0E11111F1111001F0460
:104F86000C0404040E001F20206B657970616420F8
:104F96006D6F6465202020002020206D6F7573657D
:104FA600206D6F6465202020002020526879746887
:104FB6006D206D6F646507202000636C6970207337
:104FC600747564696F206D6F6465002020796F7554
:104FD60074756265206D6F646520200020206D6FFA
:104FE6006465206E756D2030352020200020206DF0
:104FF6006F6465206E756D203036202020002020DD
:105006006D6F6465206E756D20303720202000207E
:10501600206D6F6465206E756D203038202020006D
:1050260020206D6F6465206E756D2030392020203C
:105036000020206D6163726F206D6F75736521208E
:10504600200020206D6F6465206E756D2031312043
:1050560020200020206D6F6465206E756D20313232
:105066002020200020206D6F6465206E756D203134
:105076003320202000202053757266616365206D01
:105086006F646520200020436F6E73756D65722016
:105096006D6F6465202000DBDCDDDE00E7E8E9DF1C
:1050A60000E4E5E6DF00E1E2E3E000EAFCEBB20063
:1050B60000010302000C080D10540A010B11540ED6
:1050C600090F16551213001701B1D8D7B00074672F
:1050D600687900657275690064666A6B0061736B56
:1050E6006C00DBDCDDDE00E7E8E9DF00E4E5E6DFB7
:1050F60000E1E2E3E000EAFCEBB20000D8D7D90019
:10510600373839DA00343536DA0031323366003072
:10511600EA20C60000626364006566676800696A23
:105126006B6C006D6E6F7000717273740000626359
:1051360064006566676800696A6B6C006D6E6F7007
:1051460000717273740000626364006566676800CC
:10515600696A6B6C006D6E6F70007172737400001B
:10516600626364006566676800696A6B6C006D6EF1
:105176006F70007172737400006263640065666725
:105186006800696A6B6C006D6E6F70007172737483
:105196000000010302000C080D10540A010B1174E3
:1051A6000E090F165512130017010062636400659D
:1051B60066676800696A6B6C006D6E6F700071726D
:1051C60073740000626364006566676800696A6BF1
:1051D6006C006D6E6F7000717273740000626364B0
:1051E600006566676800696A6B6C006D6E6F7000BB
:1051F600717273740000EEECED0065666768006915
:105206006A6B6C006D6E6F7000717273740000B41F
:10521600B5B600B7B8B9BA00BBBCBDBE00BFC000CA
:10522600EC000405060700870887088708870887B3
:10523600080000580880000000000088083609FBB6
:1052460008E00809080706050F0E100A000000000E
:10525600C2047108E304D8046A05E80446050000A0
:105266000000B6092B0A0E0A760A2B22F6FF00006A
:10527600B50C0804050B6203940B3522A30B000042
:1052860000007D0A00000000AE0A00000000B50C18
:105296000804050B6203940BF60AA30B000000003A
:1052A600080B00000000360E0804050B62030D0A09
:1052B600006D6F7573653A00776865656C3A0064D2
:1052C600656C61793A004D3A5F20202020015F200D
:1052D600025F20035F200020437573746F6D206B9F
:1052E6006579706164202000202020627920437255
:1052F600656D6D7920202020005341564500202001
:1053060020534156494E472E2E2E20202020005352
:1053160061766520636F6D706C6574652100206F22
:105326006620313032342062797465732075736576
:1053360064004C4F4144002020204C4F4144494ECC
:10534600472E2E2E20202000206279746573204C73
:105356006F616420636F6D706C65746521005052D7
:10536600494E540020205052494E54494E472E2E45
:105376002E202020005061737465207468697320A4
:105386006C69737420617420276B65795365747337
:1053960027007B00307825303258002C007D002F06
:1053A6002F200050617374652074686973206C69DE
:1053B600737420617420276D6F6465537472696E0F
:1053C60067270022005345544D4F44450020205383
:1053D600455454494E47204D4F4445202000456EC4
:1053E600746572206B657920736574206E756D62C5
:1053F6006572202830307E0029004552524F5221D6
:1054060020506C656173652072652D656E746572DA
:10541600006B65792073657420002073656C656385
:1054260074656400456E746572206B6579207365DA
:105436007420636F6E66696720696E206865780000
:1054460045783A20307835302C307836312C307823
:1054560045422C307844462C3078303000456E7406
:10546600657220526F772000207361766564210093
:105476004E6F20636F6D6D616E64210020456E7402
:105486006572206D6F6465206E756D200020283072
:10549600307E313529202020285F5F292000206BAF
:1054A60065792074657374206D6F64652020002013
:1054B60020202020203F3F3F3F202020202020008A
:1054C60020696E7661696C64206E756D6265722006
:1054D60000202020686F6C64696E672E2E202020C5
:1054E6002000202020686F6C64696E672E202020C3
:1054F600202000202020686F6C64696E67202020C1
:1055060020202000202020202020202020202020B5
:065516002020202000000F
:00000001FF
